{
  "_format": "hh-sol-artifact-1",
  "contractName": "ERC20Option",
  "sourceName": "contracts/ERC20Option.sol",
  "abi": [
    {
      "inputs": [
        {
          "internalType": "address",
          "name": "_collateralAsset",
          "type": "address"
        }
      ],
      "stateMutability": "nonpayable",
      "type": "constructor"
    },
    {
      "anonymous": false,
      "inputs": [
        {
          "indexed": false,
          "internalType": "uint256",
          "name": "epoch",
          "type": "uint256"
        },
        {
          "indexed": false,
          "internalType": "uint256",
          "name": "strike",
          "type": "uint256"
        },
        {
          "indexed": false,
          "internalType": "uint256",
          "name": "amount",
          "type": "uint256"
        },
        {
          "indexed": false,
          "internalType": "address",
          "name": "user",
          "type": "address"
        },
        {
          "indexed": false,
          "internalType": "address",
          "name": "sender",
          "type": "address"
        }
      ],
      "name": "NewDeposit",
      "type": "event"
    },
    {
      "anonymous": false,
      "inputs": [
        {
          "indexed": false,
          "internalType": "uint256",
          "name": "epoch",
          "type": "uint256"
        },
        {
          "indexed": false,
          "internalType": "uint256",
          "name": "strike",
          "type": "uint256"
        }
      ],
      "name": "NewStrike",
      "type": "event"
    },
    {
      "anonymous": false,
      "inputs": [
        {
          "indexed": false,
          "internalType": "uint256",
          "name": "epoch",
          "type": "uint256"
        },
        {
          "indexed": false,
          "internalType": "uint256",
          "name": "strike",
          "type": "uint256"
        },
        {
          "indexed": false,
          "internalType": "address",
          "name": "user",
          "type": "address"
        },
        {
          "indexed": false,
          "internalType": "uint256",
          "name": "amount",
          "type": "uint256"
        }
      ],
      "name": "NewWithdraw",
      "type": "event"
    },
    {
      "anonymous": false,
      "inputs": [
        {
          "indexed": true,
          "internalType": "address",
          "name": "previousOwner",
          "type": "address"
        },
        {
          "indexed": true,
          "internalType": "address",
          "name": "newOwner",
          "type": "address"
        }
      ],
      "name": "OwnershipTransferred",
      "type": "event"
    },
    {
      "anonymous": false,
      "inputs": [
        {
          "indexed": false,
          "internalType": "address",
          "name": "account",
          "type": "address"
        }
      ],
      "name": "Paused",
      "type": "event"
    },
    {
      "anonymous": false,
      "inputs": [
        {
          "indexed": false,
          "internalType": "uint256",
          "name": "epoch",
          "type": "uint256"
        },
        {
          "indexed": false,
          "internalType": "uint256",
          "name": "strike",
          "type": "uint256"
        },
        {
          "indexed": false,
          "internalType": "address",
          "name": "user",
          "type": "address"
        },
        {
          "indexed": false,
          "internalType": "uint256",
          "name": "amount",
          "type": "uint256"
        },
        {
          "indexed": false,
          "internalType": "uint256",
          "name": "pnl",
          "type": "uint256"
        }
      ],
      "name": "SettleOption",
      "type": "event"
    },
    {
      "anonymous": false,
      "inputs": [
        {
          "indexed": false,
          "internalType": "address",
          "name": "account",
          "type": "address"
        }
      ],
      "name": "Unpaused",
      "type": "event"
    },
    {
      "anonymous": false,
      "inputs": [
        {
          "indexed": false,
          "internalType": "uint256",
          "name": "epoch",
          "type": "uint256"
        }
      ],
      "name": "epochStarted",
      "type": "event"
    },
    {
      "inputs": [],
      "name": "HOUR",
      "outputs": [
        {
          "internalType": "uint256",
          "name": "",
          "type": "uint256"
        }
      ],
      "stateMutability": "view",
      "type": "function"
    },
    {
      "inputs": [],
      "name": "WEEK",
      "outputs": [
        {
          "internalType": "uint256",
          "name": "",
          "type": "uint256"
        }
      ],
      "stateMutability": "view",
      "type": "function"
    },
    {
      "inputs": [
        {
          "internalType": "uint256",
          "name": "price",
          "type": "uint256"
        },
        {
          "internalType": "uint256",
          "name": "strike",
          "type": "uint256"
        },
        {
          "internalType": "uint256",
          "name": "amount",
          "type": "uint256"
        }
      ],
      "name": "calculatePnl",
      "outputs": [
        {
          "internalType": "uint256",
          "name": "",
          "type": "uint256"
        }
      ],
      "stateMutability": "pure",
      "type": "function"
    },
    {
      "inputs": [],
      "name": "collateralAsset",
      "outputs": [
        {
          "internalType": "address",
          "name": "",
          "type": "address"
        }
      ],
      "stateMutability": "view",
      "type": "function"
    },
    {
      "inputs": [],
      "name": "currentEpoch",
      "outputs": [
        {
          "internalType": "uint256",
          "name": "",
          "type": "uint256"
        }
      ],
      "stateMutability": "view",
      "type": "function"
    },
    {
      "inputs": [],
      "name": "epochExpiry",
      "outputs": [
        {
          "internalType": "uint256",
          "name": "",
          "type": "uint256"
        }
      ],
      "stateMutability": "view",
      "type": "function"
    },
    {
      "inputs": [
        {
          "internalType": "uint256",
          "name": "",
          "type": "uint256"
        }
      ],
      "name": "epochStartTimes",
      "outputs": [
        {
          "internalType": "uint256",
          "name": "",
          "type": "uint256"
        }
      ],
      "stateMutability": "view",
      "type": "function"
    },
    {
      "inputs": [
        {
          "internalType": "uint256",
          "name": "",
          "type": "uint256"
        },
        {
          "internalType": "uint256",
          "name": "",
          "type": "uint256"
        }
      ],
      "name": "epochStrikeTokens",
      "outputs": [
        {
          "internalType": "address",
          "name": "",
          "type": "address"
        }
      ],
      "stateMutability": "view",
      "type": "function"
    },
    {
      "inputs": [
        {
          "internalType": "uint256",
          "name": "",
          "type": "uint256"
        },
        {
          "internalType": "uint256",
          "name": "",
          "type": "uint256"
        }
      ],
      "name": "epochStrikes",
      "outputs": [
        {
          "internalType": "uint256",
          "name": "",
          "type": "uint256"
        }
      ],
      "stateMutability": "view",
      "type": "function"
    },
    {
      "inputs": [],
      "name": "erc20Implementation",
      "outputs": [
        {
          "internalType": "address",
          "name": "",
          "type": "address"
        }
      ],
      "stateMutability": "view",
      "type": "function"
    },
    {
      "inputs": [],
      "name": "expireDelayTolerance",
      "outputs": [
        {
          "internalType": "uint256",
          "name": "",
          "type": "uint256"
        }
      ],
      "stateMutability": "view",
      "type": "function"
    },
    {
      "inputs": [],
      "name": "expireEpoch",
      "outputs": [
        {
          "internalType": "bool",
          "name": "",
          "type": "bool"
        }
      ],
      "stateMutability": "nonpayable",
      "type": "function"
    },
    {
      "inputs": [
        {
          "internalType": "uint256",
          "name": "",
          "type": "uint256"
        }
      ],
      "name": "isEpochActive",
      "outputs": [
        {
          "internalType": "bool",
          "name": "",
          "type": "bool"
        }
      ],
      "stateMutability": "view",
      "type": "function"
    },
    {
      "inputs": [
        {
          "internalType": "uint256",
          "name": "",
          "type": "uint256"
        }
      ],
      "name": "isEpochExpired",
      "outputs": [
        {
          "internalType": "bool",
          "name": "",
          "type": "bool"
        }
      ],
      "stateMutability": "view",
      "type": "function"
    },
    {
      "inputs": [
        {
          "internalType": "uint256",
          "name": "",
          "type": "uint256"
        }
      ],
      "name": "isSettlementOpen",
      "outputs": [
        {
          "internalType": "bool",
          "name": "",
          "type": "bool"
        }
      ],
      "stateMutability": "view",
      "type": "function"
    },
    {
      "inputs": [
        {
          "internalType": "uint256",
          "name": "",
          "type": "uint256"
        }
      ],
      "name": "isVaultReady",
      "outputs": [
        {
          "internalType": "bool",
          "name": "",
          "type": "bool"
        }
      ],
      "stateMutability": "view",
      "type": "function"
    },
    {
      "inputs": [
        {
          "internalType": "uint256",
          "name": "strikeIndex",
          "type": "uint256"
        },
        {
          "internalType": "uint256",
          "name": "amount",
          "type": "uint256"
        },
        {
          "internalType": "address",
          "name": "user",
          "type": "address"
        }
      ],
      "name": "mintOption",
      "outputs": [
        {
          "internalType": "bool",
          "name": "",
          "type": "bool"
        }
      ],
      "stateMutability": "nonpayable",
      "type": "function"
    },
    {
      "inputs": [
        {
          "internalType": "uint256",
          "name": "settlementPrice",
          "type": "uint256"
        }
      ],
      "name": "openSettlement",
      "outputs": [
        {
          "internalType": "bool",
          "name": "",
          "type": "bool"
        }
      ],
      "stateMutability": "nonpayable",
      "type": "function"
    },
    {
      "inputs": [],
      "name": "owner",
      "outputs": [
        {
          "internalType": "address",
          "name": "",
          "type": "address"
        }
      ],
      "stateMutability": "view",
      "type": "function"
    },
    {
      "inputs": [],
      "name": "pause",
      "outputs": [
        {
          "internalType": "bool",
          "name": "",
          "type": "bool"
        }
      ],
      "stateMutability": "nonpayable",
      "type": "function"
    },
    {
      "inputs": [],
      "name": "paused",
      "outputs": [
        {
          "internalType": "bool",
          "name": "",
          "type": "bool"
        }
      ],
      "stateMutability": "view",
      "type": "function"
    },
    {
      "inputs": [],
      "name": "renounceOwnership",
      "outputs": [],
      "stateMutability": "nonpayable",
      "type": "function"
    },
    {
      "inputs": [
        {
          "internalType": "uint256[]",
          "name": "strikes",
          "type": "uint256[]"
        }
      ],
      "name": "setStrikes",
      "outputs": [
        {
          "internalType": "bool",
          "name": "",
          "type": "bool"
        }
      ],
      "stateMutability": "nonpayable",
      "type": "function"
    },
    {
      "inputs": [
        {
          "internalType": "uint256",
          "name": "strikeIndex",
          "type": "uint256"
        },
        {
          "internalType": "uint256",
          "name": "amount",
          "type": "uint256"
        },
        {
          "internalType": "uint256",
          "name": "epoch",
          "type": "uint256"
        }
      ],
      "name": "settle",
      "outputs": [
        {
          "internalType": "uint256",
          "name": "pnl",
          "type": "uint256"
        }
      ],
      "stateMutability": "nonpayable",
      "type": "function"
    },
    {
      "inputs": [
        {
          "internalType": "uint256",
          "name": "",
          "type": "uint256"
        }
      ],
      "name": "settlementPrices",
      "outputs": [
        {
          "internalType": "uint256",
          "name": "",
          "type": "uint256"
        }
      ],
      "stateMutability": "view",
      "type": "function"
    },
    {
      "inputs": [],
      "name": "startNextEpoch",
      "outputs": [
        {
          "internalType": "bool",
          "name": "",
          "type": "bool"
        }
      ],
      "stateMutability": "nonpayable",
      "type": "function"
    },
    {
      "inputs": [
        {
          "internalType": "uint256",
          "name": "",
          "type": "uint256"
        }
      ],
      "name": "totalEpochBalance",
      "outputs": [
        {
          "internalType": "uint256",
          "name": "",
          "type": "uint256"
        }
      ],
      "stateMutability": "view",
      "type": "function"
    },
    {
      "inputs": [
        {
          "internalType": "uint256",
          "name": "",
          "type": "uint256"
        }
      ],
      "name": "totalEpochDeposits",
      "outputs": [
        {
          "internalType": "uint256",
          "name": "",
          "type": "uint256"
        }
      ],
      "stateMutability": "view",
      "type": "function"
    },
    {
      "inputs": [
        {
          "internalType": "uint256",
          "name": "",
          "type": "uint256"
        },
        {
          "internalType": "uint256",
          "name": "",
          "type": "uint256"
        }
      ],
      "name": "totalEpochStrikeAssetBalance",
      "outputs": [
        {
          "internalType": "uint256",
          "name": "",
          "type": "uint256"
        }
      ],
      "stateMutability": "view",
      "type": "function"
    },
    {
      "inputs": [
        {
          "internalType": "uint256",
          "name": "",
          "type": "uint256"
        },
        {
          "internalType": "uint256",
          "name": "",
          "type": "uint256"
        }
      ],
      "name": "totalEpochStrikeBalance",
      "outputs": [
        {
          "internalType": "uint256",
          "name": "",
          "type": "uint256"
        }
      ],
      "stateMutability": "view",
      "type": "function"
    },
    {
      "inputs": [
        {
          "internalType": "uint256",
          "name": "",
          "type": "uint256"
        },
        {
          "internalType": "uint256",
          "name": "",
          "type": "uint256"
        }
      ],
      "name": "totalEpochStrikeDeposits",
      "outputs": [
        {
          "internalType": "uint256",
          "name": "",
          "type": "uint256"
        }
      ],
      "stateMutability": "view",
      "type": "function"
    },
    {
      "inputs": [
        {
          "internalType": "address",
          "name": "newOwner",
          "type": "address"
        }
      ],
      "name": "transferOwnership",
      "outputs": [],
      "stateMutability": "nonpayable",
      "type": "function"
    },
    {
      "inputs": [],
      "name": "unpause",
      "outputs": [
        {
          "internalType": "bool",
          "name": "",
          "type": "bool"
        }
      ],
      "stateMutability": "nonpayable",
      "type": "function"
    },
    {
      "inputs": [
        {
          "internalType": "uint256",
          "name": "",
          "type": "uint256"
        },
        {
          "internalType": "bytes32",
          "name": "",
          "type": "bytes32"
        }
      ],
      "name": "userEpochDeposits",
      "outputs": [
        {
          "internalType": "uint256",
          "name": "",
          "type": "uint256"
        }
      ],
      "stateMutability": "view",
      "type": "function"
    },
    {
      "inputs": [
        {
          "internalType": "uint256",
          "name": "withdrawEpoch",
          "type": "uint256"
        },
        {
          "internalType": "uint256",
          "name": "strikeIndex",
          "type": "uint256"
        }
      ],
      "name": "withdrawCollateral",
      "outputs": [
        {
          "internalType": "uint256",
          "name": "",
          "type": "uint256"
        }
      ],
      "stateMutability": "nonpayable",
      "type": "function"
    }
  ],
  "bytecode": "0x60c060405261012c60035562093a80601255610e106013553480156200002457600080fd5b506040516200477f3803806200477f833981016040819052620000479162000157565b6200005233620000f9565b6000805460ff60a01b191690556001600160a01b0381166200009f5760405162461bcd60e51b8152602060048201526002602482015261453160f01b604482015260640160405180910390fd5b6001600160601b0319606082901b166080526000600155604051620000c49062000149565b604051809103906000f080158015620000e1573d6000803e3d6000fd5b5060601b6001600160601b03191660a0525062000187565b600080546001600160a01b038381166001600160a01b0319831681178455604051919092169283917f8be0079c531659141344cd1fd0a4f28419497f9722a3daafe3b4186f6b6457e09190a35050565b61209580620026ea83390190565b60006020828403121562000169578081fd5b81516001600160a01b038116811462000180578182fd5b9392505050565b60805160601c60a05160601c61251b620001cf6000396000818161045801526119630152600081816104eb015281816107a801528181610d07015261115a015261251b6000f3fe608060405234801561001057600080fd5b50600436106102415760003560e01c80638456cb5911610145578063aabaecd6116100bd578063d7e151311161008c578063f306694a11610071578063f306694a14610591578063f4359ce5146105bc578063f72d9c69146105c557600080fd5b8063d7e151311461055e578063f2fde38b1461057e57600080fd5b8063aabaecd6146104e6578063ab936c691461050d578063b12daf6914610520578063d3e3e3521461054b57600080fd5b8063901be041116101145780639bbce478116100f95780639bbce4781461049d578063a39dc9be146104bd578063a6fe2b9e146104c657600080fd5b8063901be0411461045357806393c82c751461047a57600080fd5b80638456cb59146103fc57806388e18e13146104045780638990d045146104175780638da5cb5b1461044257600080fd5b806361644373116101d8578063715018a6116101a7578063767a7b051161018c578063767a7b05146103b35780637e36701f146103c65780637f719a09146103d957600080fd5b8063715018a6146103a057806376671808146103aa57600080fd5b806361644373146103635780636a1fc4401461036c5780636beff1981461038f5780636db29f6d1461039857600080fd5b8063470f422411610214578063470f4224146102c7578063574cdded1461031357806359527e1b146103265780635c975abb1461035157600080fd5b80630bcce9a514610246578063344afb5f1461026e5780633f4ba83a1461029c5780633f83b8a5146102a4575b600080fd5b6102596102543660046122ed565b6105cd565b60405190151581526020015b60405180910390f35b61028e61027c36600461228a565b600f6020526000908152604090205481565b604051908152602001610265565b610259610995565b6102596102b236600461228a565b60046020526000908152604090205460ff1681565b6102fb6102d53660046122db565b60096020908152600092835260408084209091529082529020546001600160a01b031681565b6040516001600160a01b039091168152602001610265565b61028e610321366004612321565b6109fe565b61028e6103343660046122db565b601160209081526000928352604080842090915290825290205481565b600054600160a01b900460ff16610259565b61028e60035481565b61025961037a36600461228a565b60056020526000908152604090205460ff1681565b61028e60025481565b610259610dd7565b6103a8610ed9565b005b61028e60015481565b61028e6103c13660046122db565b610f3f565b61028e6103d43660046122db565b6111d2565b6102596103e736600461228a565b60086020526000908152604090205460ff1681565b610259611203565b61028e610412366004612321565b611266565b61028e6104253660046122ba565b600b60209081526000928352604080842090915290825290205481565b6000546001600160a01b03166102fb565b6102fb7f000000000000000000000000000000000000000000000000000000000000000081565b61025961048836600461228a565b60076020526000908152604090205460ff1681565b61028e6104ab36600461228a565b60106020526000908152604090205481565b61028e60135481565b61028e6104d436600461228a565b600a6020526000908152604090205481565b6102fb7f000000000000000000000000000000000000000000000000000000000000000081565b61025961051b36600461228a565b61129e565b61028e61052e3660046122db565b600c60209081526000928352604080842090915290825290205481565b6102596105593660046121aa565b611437565b61028e61056c36600461228a565b600d6020526000908152604090205481565b6103a861058c366004612190565b6115f0565b61028e61059f3660046122db565b600e60209081526000928352604080842090915290825290205481565b61028e60125481565b6102596116d2565b60008054600160a01b900460ff16156106205760405162461bcd60e51b815260206004820152601060248201526f14185d5cd8589b194e881c185d5cd95960821b60448201526064015b60405180910390fd5b6001541561066d5760015460009081526005602052604090205460ff1661066d5760405162461bcd60e51b81526020600482015260016024820152604560f81b6044820152606401610617565b60015460009081526006602052604090205484106106b15760405162461bcd60e51b81526020600482015260016024820152604560f81b6044820152606401610617565b600083116106e55760405162461bcd60e51b81526020600482015260016024820152604560f81b6044820152606401610617565b600154600090815260066020526040812080548690811061071657634e487b7160e01b600052603260045260246000fd5b9060005260206000200154905080600014156107585760405162461bcd60e51b81526020600482015260016024820152604560f81b6044820152606401610617565b6040516bffffffffffffffffffffffff19606085901b1660208201526034810182905260009060540160408051601f19818403018152919052805160209091012090506107d06001600160a01b037f000000000000000000000000000000000000000000000000000000000000000016333088611ab7565b6001546000908152600960209081526040808320858452909152908190205490516340c10f1960e01b8152336004820152602481018790526001600160a01b03909116906340c10f1990604401600060405180830381600087803b15801561083757600080fd5b505af115801561084b573d6000803e3d6000fd5b50506001546000908152600b602090815260408083208684529091528120805489945090925061087c90849061240f565b90915550506001546000908152600c60209081526040808320858452909152812080548792906108ad90849061240f565b90915550506001546000908152600d6020526040812080548792906108d390849061240f565b90915550506001546000908152600e602090815260408083208584529091528120805487929061090490849061240f565b90915550506001546000908152600f60205260408120805487929061092a90849061240f565b9091555050600154604080519182526020820184905281018690526001600160a01b03851660608201523360808201527fcaa9001342572663a8f7c22e7c6f0331a45254407418d9f993ed2d1485adc2059060a00160405180910390a16001925050505b9392505050565b600080546001600160a01b031633146109f05760405162461bcd60e51b815260206004820181905260248201527f4f776e61626c653a2063616c6c6572206973206e6f7420746865206f776e65726044820152606401610617565b6109f8611b55565b50600190565b60008054600160a01b900460ff1615610a4c5760405162461bcd60e51b815260206004820152601060248201526f14185d5cd8589b194e881c185d5cd95960821b6044820152606401610617565b60008281526008602052604090205460ff16610a8f5760405162461bcd60e51b8152602060048201526002602482015261453160f01b6044820152606401610617565b60008281526007602052604090205460ff1615610ad35760405162461bcd60e51b8152602060048201526002602482015261229960f11b6044820152606401610617565b6000828152600660205260409020548410610b155760405162461bcd60e51b8152602060048201526002602482015261453360f01b6044820152606401610617565b60008311610b4a5760405162461bcd60e51b8152602060048201526002602482015261114d60f21b6044820152606401610617565b6000828152600660205260408120805486908110610b7857634e487b7160e01b600052603260045260246000fd5b906000526020600020015490508060001415610bba5760405162461bcd60e51b81526020600482015260016024820152604560f81b6044820152606401610617565b6000838152600960209081526040808320848452909152908190205490516370a0823160e01b815233600482015285916001600160a01b0316906370a082319060240160206040518083038186803b158015610c1557600080fd5b505afa158015610c29573d6000803e3d6000fd5b505050506040513d601f19601f82011682018060405250810190610c4d91906122a2565b1015610c805760405162461bcd60e51b8152602060048201526002602482015261453560f01b6044820152606401610617565b600083815260106020526040902054610c9a908286611266565b915060008211610cd05760405162461bcd60e51b81526020600482015260016024820152604560f81b6044820152606401610617565b60008381526009602090815260408083208484529091529081902054905163079cc67960e41b8152336004820152602481018690527f0000000000000000000000000000000000000000000000000000000000000000916001600160a01b0316906379cc679090604401600060405180830381600087803b158015610d5457600080fd5b505af1158015610d68573d6000803e3d6000fd5b50610d81925050506001600160a01b0382163385611bfb565b60408051858152602081018490523381830152606081018790526080810185905290517fdc7677e993473b36ecd85fecf553b00b71af0b5fd14324794eb0a9ad389c03fd9181900360a00190a150509392505050565b60008054600160a01b900460ff1615610e255760405162461bcd60e51b815260206004820152601060248201526f14185d5cd8589b194e881c185d5cd95960821b6044820152606401610617565b60015460009081526007602052604090205460ff1615610e6b5760405162461bcd60e51b81526020600482015260016024820152604560f81b6044820152606401610617565b6002544211610ea05760405162461bcd60e51b81526020600482015260016024820152604560f81b6044820152606401610617565b50600180546000908152600760209081526040808320805460ff1990811686179091558454845260089092529091208054909116905590565b6000546001600160a01b03163314610f335760405162461bcd60e51b815260206004820181905260248201527f4f776e61626c653a2063616c6c6572206973206e6f7420746865206f776e65726044820152606401610617565b610f3d6000611c30565b565b60008054600160a01b900460ff1615610f8d5760405162461bcd60e51b815260206004820152601060248201526f14185d5cd8589b194e881c185d5cd95960821b6044820152606401610617565b60008381526007602052604090205460ff16610fcf5760405162461bcd60e51b81526020600482015260016024820152604560f81b6044820152606401610617565b60008381526006602052604090205482106110105760405162461bcd60e51b81526020600482015260016024820152604560f81b6044820152606401610617565b600083815260066020526040812080548490811061103e57634e487b7160e01b600052603260045260246000fd5b9060005260206000200154905080600014156110805760405162461bcd60e51b81526020600482015260016024820152604560f81b6044820152606401610617565b6040516bffffffffffffffffffffffff193360601b1660208201526034810182905260009060540160408051601f1981840301815291815281516020928301206000888152600b8452828120828252909352912054909150806111095760405162461bcd60e51b81526020600482015260016024820152604560f81b6044820152606401610617565b600086815260106020526040812054611123908584611266565b90506000611131828461245a565b6000898152600b6020908152604080832088845290915281205590506111816001600160a01b037f0000000000000000000000000000000000000000000000000000000000000000163383611bfb565b604080518981526020810187905233818301526060810185905290517f294bd87f936923cb717e7c18403cc7942d76f0963aa76a0327c7f2529d8fe4149181900360800190a1979650505050505050565b600660205281600052604060002081815481106111ee57600080fd5b90600052602060002001600091509150505481565b600080546001600160a01b0316331461125e5760405162461bcd60e51b815260206004820181905260248201527f4f776e61626c653a2063616c6c6572206973206e6f7420746865206f776e65726044820152606401610617565b6109f8611c8d565b6000828411611276576000611296565b8382611282858361245a565b61128c919061243b565b6112969190612427565b949350505050565b600080546001600160a01b031633146112f95760405162461bcd60e51b815260206004820181905260248201527f4f776e61626c653a2063616c6c6572206973206e6f7420746865206f776e65726044820152606401610617565b600054600160a01b900460ff16156113465760405162461bcd60e51b815260206004820152601060248201526f14185d5cd8589b194e881c185d5cd95960821b6044820152606401610617565b60015460009081526008602052604090205460ff161561138c5760405162461bcd60e51b81526020600482015260016024820152604560f81b6044820152606401610617565b60135460025461139c919061245a565b42116113ce5760405162461bcd60e51b81526020600482015260016024820152604560f81b6044820152606401610617565b60025442106114035760405162461bcd60e51b81526020600482015260016024820152604560f81b6044820152606401610617565b506001805460009081526010602090815260408083208590558354835260089091529020805460ff1916821790555b919050565b600080546001600160a01b031633146114925760405162461bcd60e51b815260206004820181905260248201527f4f776e61626c653a2063616c6c6572206973206e6f7420746865206f776e65726044820152606401610617565b600054600160a01b900460ff16156114df5760405162461bcd60e51b815260206004820152601060248201526f14185d5cd8589b194e881c185d5cd95960821b6044820152606401610617565b600060015460016114f0919061240f565b600154909150156115305760025442116115305760405162461bcd60e51b81526020600482015260016024820152604560f81b6044820152606401610617565b6000818152600660209081526040909120845161154f92860190612119565b506000818152600a602052604081204290555b83518110156115e6577f5185be10ef2a03e926961817be495a630ded54bceffb3ba11f6af477c9c76682828583815181106115ad57634e487b7160e01b600052603260045260246000fd5b60200260200101516040516115cc929190918252602082015260400190565b60405180910390a1806115de8161249d565b915050611562565b5060019392505050565b6000546001600160a01b0316331461164a5760405162461bcd60e51b815260206004820181905260248201527f4f776e61626c653a2063616c6c6572206973206e6f7420746865206f776e65726044820152606401610617565b6001600160a01b0381166116c65760405162461bcd60e51b815260206004820152602660248201527f4f776e61626c653a206e6577206f776e657220697320746865207a65726f206160448201527f64647265737300000000000000000000000000000000000000000000000000006064820152608401610617565b6116cf81611c30565b50565b600080546001600160a01b0316331461172d5760405162461bcd60e51b815260206004820181905260248201527f4f776e61626c653a2063616c6c6572206973206e6f7420746865206f776e65726044820152606401610617565b600054600160a01b900460ff161561177a5760405162461bcd60e51b815260206004820152601060248201526f14185d5cd8589b194e881c185d5cd95960821b6044820152606401610617565b6000600154600161178b919061240f565b60008181526004602052604090205490915060ff16156117d15760405162461bcd60e51b81526020600482015260016024820152604560f81b6044820152606401610617565b6000818152600660205260409020546118105760405162461bcd60e51b81526020600482015260016024820152604560f81b6044820152606401610617565b6001541561185d5760015460009081526007602052604090205460ff1661185d5760405162461bcd60e51b81526020600482015260016024820152604560f81b6044820152606401610617565b60125461186a904261240f565b60025560005b600082815260066020526040902054811015611a4a5760008281526006602052604081208054839081106118b457634e487b7160e01b600052603260045260246000fd5b90600052602060002001549050600061190a6040518060400160405280600a81526020017f45524332302d43414c4c0000000000000000000000000000000000000000000081525061190584611d15565b611e47565b905061194b816040518060400160405280600781526020017f2d45504f43482d00000000000000000000000000000000000000000000000000815250611e47565b905061195a8161190586611d15565b905060006119877f0000000000000000000000000000000000000000000000000000000000000000611e73565b600254604051636fe0e39560e01b81529192506001600160a01b03831691636fe0e395916119be91869182918991906004016123d6565b600060405180830381600087803b1580156119d857600080fd5b505af11580156119ec573d6000803e3d6000fd5b505050600086815260096020908152604080832096835295905293909320805473ffffffffffffffffffffffffffffffffffffffff19166001600160a01b039290921691909117905550819050611a428161249d565b915050611870565b5060008181526004602090815260408083208054600160ff199182168117909255858255600584529382902080549094161790925590518281527fb630f040fbb6eb999316aaff956fa57d9fd9bf0b85705c2d4d996a63f0354c4b910160405180910390a1600191505090565b6040516001600160a01b0380851660248301528316604482015260648101829052611b4f9085906323b872dd60e01b906084015b60408051601f198184030181529190526020810180517bffffffffffffffffffffffffffffffffffffffffffffffffffffffff167fffffffff0000000000000000000000000000000000000000000000000000000090931692909217909152611f29565b50505050565b600054600160a01b900460ff16611bae5760405162461bcd60e51b815260206004820152601460248201527f5061757361626c653a206e6f74207061757365640000000000000000000000006044820152606401610617565b6000805460ff60a01b191690557f5db9ee0a495bf2e6ff9c91a7834c1ba4fdd244a5e8aa4e537bd38aeae4b073aa335b6040516001600160a01b03909116815260200160405180910390a1565b6040516001600160a01b038316602482015260448101829052611c2b90849063a9059cbb60e01b90606401611aeb565b505050565b600080546001600160a01b0383811673ffffffffffffffffffffffffffffffffffffffff19831681178455604051919092169283917f8be0079c531659141344cd1fd0a4f28419497f9722a3daafe3b4186f6b6457e09190a35050565b600054600160a01b900460ff1615611cda5760405162461bcd60e51b815260206004820152601060248201526f14185d5cd8589b194e881c185d5cd95960821b6044820152606401610617565b6000805460ff60a01b1916600160a01b1790557f62e78cea01bee320cd4e420270b5ea74000d11b0c9f74754ebdbfc544b05a258611bde3390565b606081611d395750506040805180820190915260018152600360fc1b602082015290565b8160005b8115611d635780611d4d8161249d565b9150611d5c9050600a83612427565b9150611d3d565b60008167ffffffffffffffff811115611d8c57634e487b7160e01b600052604160045260246000fd5b6040519080825280601f01601f191660200182016040528015611db6576020820181803683370190505b5090505b841561129657611dcb60018361245a565b9150611dd8600a866124b8565b611de390603061240f565b60f81b818381518110611e0657634e487b7160e01b600052603260045260246000fd5b60200101907effffffffffffffffffffffffffffffffffffffffffffffffffffffffffffff1916908160001a905350611e40600a86612427565b9450611dba565b60608282604051602001611e5c929190612394565b604051602081830303815290604052905092915050565b60006040517f3d602d80600a3d3981f3363d3d373d3d3d363d7300000000000000000000000081528260601b60148201527f5af43d82803e903d91602b57fd5bf3000000000000000000000000000000000060288201526037816000f09150506001600160a01b0381166114325760405162461bcd60e51b815260206004820152601660248201527f455243313136373a20637265617465206661696c6564000000000000000000006044820152606401610617565b6000611f7e826040518060400160405280602081526020017f5361666545524332303a206c6f772d6c6576656c2063616c6c206661696c6564815250856001600160a01b031661200e9092919063ffffffff16565b805190915015611c2b5780806020019051810190611f9c919061226a565b611c2b5760405162461bcd60e51b815260206004820152602a60248201527f5361666545524332303a204552433230206f7065726174696f6e20646964206e60448201527f6f742073756363656564000000000000000000000000000000000000000000006064820152608401610617565b6060611296848460008585843b6120675760405162461bcd60e51b815260206004820152601d60248201527f416464726573733a2063616c6c20746f206e6f6e2d636f6e74726163740000006044820152606401610617565b600080866001600160a01b031685876040516120839190612378565b60006040518083038185875af1925050503d80600081146120c0576040519150601f19603f3d011682016040523d82523d6000602084013e6120c5565b606091505b50915091506120d58282866120e0565b979650505050505050565b606083156120ef57508161098e565b8251156120ff5782518084602001fd5b8160405162461bcd60e51b815260040161061791906123c3565b828054828255906000526020600020908101928215612154579160200282015b82811115612154578251825591602001919060010190612139565b50612160929150612164565b5090565b5b808211156121605760008155600101612165565b80356001600160a01b038116811461143257600080fd5b6000602082840312156121a1578081fd5b61098e82612179565b600060208083850312156121bc578182fd5b823567ffffffffffffffff808211156121d3578384fd5b818501915085601f8301126121e6578384fd5b8135818111156121f8576121f86124f8565b8060051b604051601f19603f8301168101818110858211171561221d5761221d6124f8565b604052828152858101935084860182860187018a101561223b578788fd5b8795505b8386101561225d57803585526001959095019493860193860161223f565b5098975050505050505050565b60006020828403121561227b578081fd5b8151801515811461098e578182fd5b60006020828403121561229b578081fd5b5035919050565b6000602082840312156122b3578081fd5b5051919050565b600080604083850312156122cc578081fd5b50508035926020909101359150565b600080604083850312156122cc578182fd5b600080600060608486031215612301578081fd5b833592506020840135915061231860408501612179565b90509250925092565b600080600060608486031215612335578283fd5b505081359360208301359350604090920135919050565b60008151808452612364816020860160208601612471565b601f01601f19169290920160200192915050565b6000825161238a818460208701612471565b9190910192915050565b600083516123a6818460208801612471565b8351908301906123ba818360208801612471565b01949350505050565b60208152600061098e602083018461234c565b6080815260006123e9608083018761234c565b82810360208401526123fb818761234c565b604084019590955250506060015292915050565b60008219821115612422576124226124cc565b500190565b600082612436576124366124e2565b500490565b6000816000190483118215151615612455576124556124cc565b500290565b60008282101561246c5761246c6124cc565b500390565b60005b8381101561248c578181015183820152602001612474565b83811115611b4f5750506000910152565b60006000198214156124b1576124b16124cc565b5060010190565b6000826124c7576124c76124e2565b500690565b634e487b7160e01b600052601160045260246000fd5b634e487b7160e01b600052601260045260246000fd5b634e487b7160e01b600052604160045260246000fdfea164736f6c6343000804000a608060405234801561001057600080fd5b50612075806100206000396000f3fe608060405234801561001057600080fd5b50600436106101e55760003560e01c806370a082311161010f578063a9059cbb116100a2578063d547741f11610071578063d547741f1461043b578063dd62ed3e1461044e578063e184c9be14610487578063e63ab1e91461049157600080fd5b8063a9059cbb146103e4578063c52987cf146103f7578063ca15c87314610401578063d53913931461041457600080fd5b806391d14854116100de57806391d148541461038857806395d89b41146103c1578063a217fddf146103c9578063a457c2d7146103d157600080fd5b806370a082311461031957806379cc6790146103425780638456cb59146103555780639010d07c1461035d57600080fd5b8063313ce5671161018757806340c10f191161015657806340c10f19146102d457806342966c68146102e75780635c975abb146102fa5780636fe0e3951461030657600080fd5b8063313ce5671461029757806336568abe146102a657806339509351146102b95780633f4ba83a146102cc57600080fd5b806318160ddd116101c357806318160ddd1461023a57806323b872dd1461024c578063248a9ca31461025f5780632f2ff15d1461028257600080fd5b806301ffc9a7146101ea57806306fdde0314610212578063095ea7b314610227575b600080fd5b6101fd6101f8366004611e23565b6104b8565b60405190151581526020015b60405180910390f35b61021a6104e3565b6040516102099190611f3d565b6101fd610235366004611d9f565b610575565b60cb545b604051908152602001610209565b6101fd61025a366004611d64565b61058b565b61023e61026d366004611dc8565b60009081526065602052604090206001015490565b610295610290366004611de0565b61064f565b005b60405160128152602001610209565b6102956102b4366004611de0565b61067a565b6101fd6102c7366004611d9f565b610706565b610295610742565b6102956102e2366004611d9f565b6107e8565b6102956102f5366004611dc8565b61088e565b61012d5460ff166101fd565b610295610314366004611e4b565b61089b565b61023e610327366004611d18565b6001600160a01b0316600090815260c9602052604090205490565b610295610350366004611d9f565b61097d565b6102956109fe565b61037061036b366004611e02565b610aa2565b6040516001600160a01b039091168152602001610209565b6101fd610396366004611de0565b60009182526065602090815260408084206001600160a01b0393909316845291905290205460ff1690565b61021a610ac1565b61023e600081565b6101fd6103df366004611d9f565b610ad0565b6101fd6103f2366004611d9f565b610b81565b61023e6101915481565b61023e61040f366004611dc8565b610b8e565b61023e7f9f2df0fed2c77648de5860a4cc508cd0818c85b8b8a1ab4ceeef8d981c8956a681565b610295610449366004611de0565b610ba5565b61023e61045c366004611d32565b6001600160a01b03918216600090815260ca6020908152604080832093909416825291909152205490565b61023e6101925481565b61023e7f65d7a28e3265b37a6474929f336521b332c1681b933f6cb9f3376673440d862a81565b60006001600160e01b03198216635a05180f60e01b14806104dd57506104dd82610bcb565b92915050565b606060cc80546104f290612001565b80601f016020809104026020016040519081016040528092919081815260200182805461051e90612001565b801561056b5780601f106105405761010080835404028352916020019161056b565b820191906000526020600020905b81548152906001019060200180831161054e57829003601f168201915b5050505050905090565b6000610582338484610c00565b50600192915050565b6000610598848484610d24565b6001600160a01b038416600090815260ca60209081526040808320338452909152902054828110156106375760405162461bcd60e51b815260206004820152602860248201527f45524332303a207472616e7366657220616d6f756e742065786365656473206160448201527f6c6c6f77616e636500000000000000000000000000000000000000000000000060648201526084015b60405180910390fd5b6106448533858403610c00565b506001949350505050565b60008281526065602052604090206001015461066b8133610f2e565b6106758383610fae565b505050565b6001600160a01b03811633146106f85760405162461bcd60e51b815260206004820152602f60248201527f416363657373436f6e74726f6c3a2063616e206f6e6c792072656e6f756e636560448201527f20726f6c657320666f722073656c660000000000000000000000000000000000606482015260840161062e565b6107028282610fd0565b5050565b33600081815260ca602090815260408083206001600160a01b0387168452909152812054909161058291859061073d908690611f70565b610c00565b61076c7f65d7a28e3265b37a6474929f336521b332c1681b933f6cb9f3376673440d862a33610396565b6107de5760405162461bcd60e51b815260206004820152603960248201527f45524332305072657365744d696e7465725061757365723a206d75737420686160448201527f76652070617573657220726f6c6520746f20756e706175736500000000000000606482015260840161062e565b6107e6610ff2565b565b6108127f9f2df0fed2c77648de5860a4cc508cd0818c85b8b8a1ab4ceeef8d981c8956a633610396565b6108845760405162461bcd60e51b815260206004820152603660248201527f45524332305072657365744d696e7465725061757365723a206d75737420686160448201527f7665206d696e74657220726f6c6520746f206d696e7400000000000000000000606482015260840161062e565b6107028282611090565b610898338261117b565b50565b600054610100900460ff166108b65760005460ff16156108ba565b303b155b61092c5760405162461bcd60e51b815260206004820152602e60248201527f496e697469616c697a61626c653a20636f6e747261637420697320616c72656160448201527f647920696e697469616c697a6564000000000000000000000000000000000000606482015260840161062e565b600054610100900460ff1615801561094e576000805461ffff19166101011790555b61095885856112d5565b6101918390556101928290558015610976576000805461ff00191690555b5050505050565b6000610989833361045c565b9050818110156109e75760405162461bcd60e51b8152602060048201526024808201527f45524332303a206275726e20616d6f756e74206578636565647320616c6c6f77604482015263616e636560e01b606482015260840161062e565b6109f48333848403610c00565b610675838361117b565b610a287f65d7a28e3265b37a6474929f336521b332c1681b933f6cb9f3376673440d862a33610396565b610a9a5760405162461bcd60e51b815260206004820152603760248201527f45524332305072657365744d696e7465725061757365723a206d75737420686160448201527f76652070617573657220726f6c6520746f207061757365000000000000000000606482015260840161062e565b6107e661138c565b6000828152609760205260408120610aba9083611416565b9392505050565b606060cd80546104f290612001565b33600090815260ca602090815260408083206001600160a01b038616845290915281205482811015610b6a5760405162461bcd60e51b815260206004820152602560248201527f45524332303a2064656372656173656420616c6c6f77616e63652062656c6f7760448201527f207a65726f000000000000000000000000000000000000000000000000000000606482015260840161062e565b610b773385858403610c00565b5060019392505050565b6000610582338484610d24565b60008181526097602052604081206104dd90611422565b600082815260656020526040902060010154610bc18133610f2e565b6106758383610fd0565b60006001600160e01b03198216637965db0b60e01b14806104dd57506301ffc9a760e01b6001600160e01b03198316146104dd565b6001600160a01b038316610c625760405162461bcd60e51b8152602060048201526024808201527f45524332303a20617070726f76652066726f6d20746865207a65726f206164646044820152637265737360e01b606482015260840161062e565b6001600160a01b038216610cc35760405162461bcd60e51b815260206004820152602260248201527f45524332303a20617070726f766520746f20746865207a65726f206164647265604482015261737360f01b606482015260840161062e565b6001600160a01b03838116600081815260ca602090815260408083209487168084529482529182902085905590518481527f8c5be1e5ebec7d5bd14f71427d1e84f3dd0314c0f7b2291e5b200ac8c7c3b925910160405180910390a3505050565b6001600160a01b038316610da05760405162461bcd60e51b815260206004820152602560248201527f45524332303a207472616e736665722066726f6d20746865207a65726f20616460448201527f6472657373000000000000000000000000000000000000000000000000000000606482015260840161062e565b6001600160a01b038216610e025760405162461bcd60e51b815260206004820152602360248201527f45524332303a207472616e7366657220746f20746865207a65726f206164647260448201526265737360e81b606482015260840161062e565b610e0d83838361142c565b6001600160a01b038316600090815260c9602052604090205481811015610e9c5760405162461bcd60e51b815260206004820152602660248201527f45524332303a207472616e7366657220616d6f756e742065786365656473206260448201527f616c616e63650000000000000000000000000000000000000000000000000000606482015260840161062e565b6001600160a01b03808516600090815260c96020526040808220858503905591851681529081208054849290610ed3908490611f70565b92505081905550826001600160a01b0316846001600160a01b03167fddf252ad1be2c89b69c2b068fc378daa952ba7f163c4a11628f55a4df523b3ef84604051610f1f91815260200190565b60405180910390a35b50505050565b60008281526065602090815260408083206001600160a01b038516845290915290205460ff1661070257610f6c816001600160a01b03166014611437565b610f77836020611437565b604051602001610f88929190611ebc565b60408051601f198184030181529082905262461bcd60e51b825261062e91600401611f3d565b610fb88282611626565b600082815260976020526040902061067590826116c8565b610fda82826116dd565b60008281526097602052604090206106759082611760565b61012d5460ff166110455760405162461bcd60e51b815260206004820152601460248201527f5061757361626c653a206e6f7420706175736564000000000000000000000000604482015260640161062e565b61012d805460ff191690557f5db9ee0a495bf2e6ff9c91a7834c1ba4fdd244a5e8aa4e537bd38aeae4b073aa335b6040516001600160a01b03909116815260200160405180910390a1565b6001600160a01b0382166110e65760405162461bcd60e51b815260206004820152601f60248201527f45524332303a206d696e7420746f20746865207a65726f206164647265737300604482015260640161062e565b6110f26000838361142c565b8060cb60008282546111049190611f70565b90915550506001600160a01b038216600090815260c9602052604081208054839290611131908490611f70565b90915550506040518181526001600160a01b038316906000907fddf252ad1be2c89b69c2b068fc378daa952ba7f163c4a11628f55a4df523b3ef9060200160405180910390a35050565b6001600160a01b0382166111db5760405162461bcd60e51b815260206004820152602160248201527f45524332303a206275726e2066726f6d20746865207a65726f206164647265736044820152607360f81b606482015260840161062e565b6111e78260008361142c565b6001600160a01b038216600090815260c960205260409020548181101561125b5760405162461bcd60e51b815260206004820152602260248201527f45524332303a206275726e20616d6f756e7420657863656564732062616c616e604482015261636560f01b606482015260840161062e565b6001600160a01b038316600090815260c960205260408120838303905560cb805484929061128a908490611fa7565b90915550506040518281526000906001600160a01b038516907fddf252ad1be2c89b69c2b068fc378daa952ba7f163c4a11628f55a4df523b3ef9060200160405180910390a3505050565b600054610100900460ff166113405760405162461bcd60e51b815260206004820152602b60248201527f496e697469616c697a61626c653a20636f6e7472616374206973206e6f74206960448201526a6e697469616c697a696e6760a81b606482015260840161062e565b611348611775565b611350611775565b611358611775565b611360611775565b61136a82826117e0565b611372611775565b61137a611872565b611382611775565b61070282826118ea565b61012d5460ff16156113e05760405162461bcd60e51b815260206004820152601060248201527f5061757361626c653a2070617573656400000000000000000000000000000000604482015260640161062e565b61012d805460ff191660011790557f62e78cea01bee320cd4e420270b5ea74000d11b0c9f74754ebdbfc544b05a2586110733390565b6000610aba83836119b4565b60006104dd825490565b6106758383836119ec565b60606000611446836002611f88565b611451906002611f70565b67ffffffffffffffff81111561147757634e487b7160e01b600052604160045260246000fd5b6040519080825280601f01601f1916602001820160405280156114a1576020820181803683370190505b509050600360fc1b816000815181106114ca57634e487b7160e01b600052603260045260246000fd5b60200101906001600160f81b031916908160001a905350600f60fb1b8160018151811061150757634e487b7160e01b600052603260045260246000fd5b60200101906001600160f81b031916908160001a905350600061152b846002611f88565b611536906001611f70565b90505b60018111156115d7577f303132333435363738396162636465660000000000000000000000000000000085600f166010811061158557634e487b7160e01b600052603260045260246000fd5b1a60f81b8282815181106115a957634e487b7160e01b600052603260045260246000fd5b60200101906001600160f81b031916908160001a90535060049490941c936115d081611fea565b9050611539565b508315610aba5760405162461bcd60e51b815260206004820181905260248201527f537472696e67733a20686578206c656e67746820696e73756666696369656e74604482015260640161062e565b60008281526065602090815260408083206001600160a01b038516845290915290205460ff166107025760008281526065602090815260408083206001600160a01b03851684529091529020805460ff191660011790556116843390565b6001600160a01b0316816001600160a01b0316837f2f8788117e7eff1d82e926ec794901d17c78024a50270940304540a733656f0d60405160405180910390a45050565b6000610aba836001600160a01b038416611a66565b60008281526065602090815260408083206001600160a01b038516845290915290205460ff16156107025760008281526065602090815260408083206001600160a01b0385168085529252808320805460ff1916905551339285917ff6391f5c32d9c69d2a47ea670b442974b53935d1edc7fd64eb21e047a839171b9190a45050565b6000610aba836001600160a01b038416611ab5565b600054610100900460ff166107e65760405162461bcd60e51b815260206004820152602b60248201527f496e697469616c697a61626c653a20636f6e7472616374206973206e6f74206960448201526a6e697469616c697a696e6760a81b606482015260840161062e565b600054610100900460ff1661184b5760405162461bcd60e51b815260206004820152602b60248201527f496e697469616c697a61626c653a20636f6e7472616374206973206e6f74206960448201526a6e697469616c697a696e6760a81b606482015260840161062e565b815161185e9060cc906020850190611bdc565b5080516106759060cd906020840190611bdc565b600054610100900460ff166118dd5760405162461bcd60e51b815260206004820152602b60248201527f496e697469616c697a61626c653a20636f6e7472616374206973206e6f74206960448201526a6e697469616c697a696e6760a81b606482015260840161062e565b61012d805460ff19169055565b600054610100900460ff166119555760405162461bcd60e51b815260206004820152602b60248201527f496e697469616c697a61626c653a20636f6e7472616374206973206e6f74206960448201526a6e697469616c697a696e6760a81b606482015260840161062e565b611960600033611bd2565b61198a7f9f2df0fed2c77648de5860a4cc508cd0818c85b8b8a1ab4ceeef8d981c8956a633611bd2565b6107027f65d7a28e3265b37a6474929f336521b332c1681b933f6cb9f3376673440d862a33611bd2565b60008260000182815481106119d957634e487b7160e01b600052603260045260246000fd5b9060005260206000200154905092915050565b61012d5460ff16156106755760405162461bcd60e51b815260206004820152602a60248201527f45524332305061757361626c653a20746f6b656e207472616e7366657220776860448201527f696c652070617573656400000000000000000000000000000000000000000000606482015260840161062e565b6000818152600183016020526040812054611aad575081546001818101845560008481526020808220909301849055845484825282860190935260409020919091556104dd565b5060006104dd565b60008181526001830160205260408120548015611bc8576000611ad9600183611fa7565b8554909150600090611aed90600190611fa7565b9050818114611b6e576000866000018281548110611b1b57634e487b7160e01b600052603260045260246000fd5b9060005260206000200154905080876000018481548110611b4c57634e487b7160e01b600052603260045260246000fd5b6000918252602080832090910192909255918252600188019052604090208390555b8554869080611b8d57634e487b7160e01b600052603160045260246000fd5b6001900381819060005260206000200160009055905585600101600086815260200190815260200160002060009055600193505050506104dd565b60009150506104dd565b6107028282610fae565b828054611be890612001565b90600052602060002090601f016020900481019282611c0a5760008555611c50565b82601f10611c2357805160ff1916838001178555611c50565b82800160010185558215611c50579182015b82811115611c50578251825591602001919060010190611c35565b50611c5c929150611c60565b5090565b5b80821115611c5c5760008155600101611c61565b80356001600160a01b0381168114611c8c57600080fd5b919050565b600082601f830112611ca1578081fd5b813567ffffffffffffffff80821115611cbc57611cbc612052565b604051601f8301601f19908116603f01168101908282118183101715611ce457611ce4612052565b81604052838152866020858801011115611cfc578485fd5b8360208701602083013792830160200193909352509392505050565b600060208284031215611d29578081fd5b610aba82611c75565b60008060408385031215611d44578081fd5b611d4d83611c75565b9150611d5b60208401611c75565b90509250929050565b600080600060608486031215611d78578081fd5b611d8184611c75565b9250611d8f60208501611c75565b9150604084013590509250925092565b60008060408385031215611db1578182fd5b611dba83611c75565b946020939093013593505050565b600060208284031215611dd9578081fd5b5035919050565b60008060408385031215611df2578182fd5b82359150611d5b60208401611c75565b60008060408385031215611e14578182fd5b50508035926020909101359150565b600060208284031215611e34578081fd5b81356001600160e01b031981168114610aba578182fd5b60008060008060808587031215611e60578081fd5b843567ffffffffffffffff80821115611e77578283fd5b611e8388838901611c91565b95506020870135915080821115611e98578283fd5b50611ea587828801611c91565b949794965050505060408301359260600135919050565b7f416363657373436f6e74726f6c3a206163636f756e7420000000000000000000815260008351611ef4816017850160208801611fbe565b7f206973206d697373696e6720726f6c65200000000000000000000000000000006017918401918201528351611f31816028840160208801611fbe565b01602801949350505050565b6020815260008251806020840152611f5c816040850160208701611fbe565b601f01601f19169190910160400192915050565b60008219821115611f8357611f8361203c565b500190565b6000816000190483118215151615611fa257611fa261203c565b500290565b600082821015611fb957611fb961203c565b500390565b60005b83811015611fd9578181015183820152602001611fc1565b83811115610f285750506000910152565b600081611ff957611ff961203c565b506000190190565b600181811c9082168061201557607f821691505b6020821081141561203657634e487b7160e01b600052602260045260246000fd5b50919050565b634e487b7160e01b600052601160045260246000fd5b634e487b7160e01b600052604160045260246000fdfea164736f6c6343000804000a",
  "linkReferences": {},
  "deployedLinkReferences": {}
}